{
  "_format": "hh-sol-artifact-1",
  "contractName": "Swello",
  "sourceName": "contracts/Swello.sol",
  "abi": [
    {
      "anonymous": false,
      "inputs": [
        {
          "indexed": false,
          "internalType": "address",
          "name": "previousAdmin",
          "type": "address"
        },
        {
          "indexed": false,
          "internalType": "address",
          "name": "newAdmin",
          "type": "address"
        }
      ],
      "name": "AdminChanged",
      "type": "event"
    },
    {
      "anonymous": false,
      "inputs": [
        {
          "indexed": true,
          "internalType": "address",
          "name": "owner",
          "type": "address"
        },
        {
          "indexed": true,
          "internalType": "address",
          "name": "spender",
          "type": "address"
        },
        {
          "indexed": false,
          "internalType": "uint256",
          "name": "value",
          "type": "uint256"
        }
      ],
      "name": "Approval",
      "type": "event"
    },
    {
      "anonymous": false,
      "inputs": [
        {
          "indexed": true,
          "internalType": "address",
          "name": "beacon",
          "type": "address"
        }
      ],
      "name": "BeaconUpgraded",
      "type": "event"
    },
    {
      "anonymous": false,
      "inputs": [
        {
          "indexed": false,
          "internalType": "address",
          "name": "_receiver",
          "type": "address"
        }
      ],
      "name": "ClearStuckBalance",
      "type": "event"
    },
    {
      "anonymous": false,
      "inputs": [
        {
          "indexed": true,
          "internalType": "uint256",
          "name": "epoch",
          "type": "uint256"
        },
        {
          "indexed": false,
          "internalType": "uint256",
          "name": "totalSupply",
          "type": "uint256"
        }
      ],
      "name": "LogRebase",
      "type": "event"
    },
    {
      "anonymous": false,
      "inputs": [
        {
          "indexed": false,
          "internalType": "int256",
          "name": "supplyDelta",
          "type": "int256"
        }
      ],
      "name": "ManualRebase",
      "type": "event"
    },
    {
      "anonymous": false,
      "inputs": [
        {
          "indexed": true,
          "internalType": "address",
          "name": "previousOwner",
          "type": "address"
        },
        {
          "indexed": true,
          "internalType": "address",
          "name": "newOwner",
          "type": "address"
        }
      ],
      "name": "OwnershipTransferred",
      "type": "event"
    },
    {
      "anonymous": false,
      "inputs": [
        {
          "indexed": false,
          "internalType": "uint256",
          "name": "_autoLPFrequency",
          "type": "uint256"
        }
      ],
      "name": "SetAutoLPFrequency",
      "type": "event"
    },
    {
      "anonymous": false,
      "inputs": [
        {
          "indexed": false,
          "internalType": "bool",
          "name": "_autoRebase",
          "type": "bool"
        }
      ],
      "name": "SetAutoRebase",
      "type": "event"
    },
    {
      "anonymous": false,
      "inputs": [
        {
          "indexed": true,
          "internalType": "address",
          "name": "pair",
          "type": "address"
        },
        {
          "indexed": true,
          "internalType": "bool",
          "name": "value",
          "type": "bool"
        }
      ],
      "name": "SetAutomatedMarketMakerPair",
      "type": "event"
    },
    {
      "anonymous": false,
      "inputs": [
        {
          "indexed": false,
          "internalType": "uint256[]",
          "name": "_bonfireBalanceThresholds",
          "type": "uint256[]"
        },
        {
          "indexed": false,
          "internalType": "uint256[]",
          "name": "_bonfireFees",
          "type": "uint256[]"
        }
      ],
      "name": "SetBonfireFees",
      "type": "event"
    },
    {
      "anonymous": false,
      "inputs": [
        {
          "indexed": false,
          "internalType": "address",
          "name": "_addr",
          "type": "address"
        },
        {
          "indexed": false,
          "internalType": "bool",
          "name": "_value",
          "type": "bool"
        }
      ],
      "name": "SetFeeExempted",
      "type": "event"
    },
    {
      "anonymous": false,
      "inputs": [
        {
          "indexed": false,
          "internalType": "address",
          "name": "_liquidityReceiver",
          "type": "address"
        },
        {
          "indexed": false,
          "internalType": "address",
          "name": "_treasuryReceiver",
          "type": "address"
        },
        {
          "indexed": false,
          "internalType": "address",
          "name": "_safetyFundReceiver",
          "type": "address"
        },
        {
          "indexed": false,
          "internalType": "address",
          "name": "_charityReceiver",
          "type": "address"
        }
      ],
      "name": "SetFeeReceivers",
      "type": "event"
    },
    {
      "anonymous": false,
      "inputs": [
        {
          "indexed": false,
          "internalType": "uint256",
          "name": "_liquidityFee",
          "type": "uint256"
        },
        {
          "indexed": false,
          "internalType": "uint256",
          "name": "_safetyFundFee",
          "type": "uint256"
        },
        {
          "indexed": false,
          "internalType": "uint256",
          "name": "_treasuryFee",
          "type": "uint256"
        },
        {
          "indexed": false,
          "internalType": "uint256",
          "name": "_sellFeeLiquidityAdded",
          "type": "uint256"
        },
        {
          "indexed": false,
          "internalType": "uint256",
          "name": "_feeDenominator",
          "type": "uint256"
        }
      ],
      "name": "SetFees",
      "type": "event"
    },
    {
      "anonymous": false,
      "inputs": [
        {
          "indexed": false,
          "internalType": "bool",
          "name": "_value",
          "type": "bool"
        }
      ],
      "name": "SetInitialDistributionFinished",
      "type": "event"
    },
    {
      "anonymous": false,
      "inputs": [
        {
          "indexed": false,
          "internalType": "bool",
          "name": "_value",
          "type": "bool"
        }
      ],
      "name": "SetIsLiquidityInBnb",
      "type": "event"
    },
    {
      "anonymous": false,
      "inputs": [
        {
          "indexed": false,
          "internalType": "uint256",
          "name": "_nextAutoLP",
          "type": "uint256"
        }
      ],
      "name": "SetNextAutoLP",
      "type": "event"
    },
    {
      "anonymous": false,
      "inputs": [
        {
          "indexed": false,
          "internalType": "uint256",
          "name": "_nextRebase",
          "type": "uint256"
        }
      ],
      "name": "SetNextRebase",
      "type": "event"
    },
    {
      "anonymous": false,
      "inputs": [
        {
          "indexed": false,
          "internalType": "uint256",
          "name": "_rebaseFrequency",
          "type": "uint256"
        }
      ],
      "name": "SetRebaseFrequency",
      "type": "event"
    },
    {
      "anonymous": false,
      "inputs": [
        {
          "indexed": false,
          "internalType": "uint256",
          "name": "_rewardYield",
          "type": "uint256"
        },
        {
          "indexed": false,
          "internalType": "uint256",
          "name": "_rewardYieldDenominator",
          "type": "uint256"
        }
      ],
      "name": "SetRewardYield",
      "type": "event"
    },
    {
      "anonymous": false,
      "inputs": [
        {
          "indexed": false,
          "internalType": "bool",
          "name": "_enabled",
          "type": "bool"
        },
        {
          "indexed": false,
          "internalType": "uint256",
          "name": "_num",
          "type": "uint256"
        },
        {
          "indexed": false,
          "internalType": "uint256",
          "name": "_denom",
          "type": "uint256"
        }
      ],
      "name": "SetSwapBackSettings",
      "type": "event"
    },
    {
      "anonymous": false,
      "inputs": [
        {
          "indexed": false,
          "internalType": "uint256",
          "name": "target",
          "type": "uint256"
        },
        {
          "indexed": false,
          "internalType": "uint256",
          "name": "accuracy",
          "type": "uint256"
        }
      ],
      "name": "SetTargetLiquidity",
      "type": "event"
    },
    {
      "anonymous": false,
      "inputs": [
        {
          "indexed": false,
          "internalType": "uint256",
          "name": "tokensSwapped",
          "type": "uint256"
        },
        {
          "indexed": false,
          "internalType": "uint256",
          "name": "bnbReceived",
          "type": "uint256"
        },
        {
          "indexed": false,
          "internalType": "uint256",
          "name": "tokensIntoLiqudity",
          "type": "uint256"
        }
      ],
      "name": "SwapAndLiquify",
      "type": "event"
    },
    {
      "anonymous": false,
      "inputs": [
        {
          "indexed": false,
          "internalType": "uint256",
          "name": "tokensSwapped",
          "type": "uint256"
        },
        {
          "indexed": false,
          "internalType": "uint256",
          "name": "busdReceived",
          "type": "uint256"
        },
        {
          "indexed": false,
          "internalType": "uint256",
          "name": "tokensIntoLiqudity",
          "type": "uint256"
        }
      ],
      "name": "SwapAndLiquifyBusd",
      "type": "event"
    },
    {
      "anonymous": false,
      "inputs": [
        {
          "indexed": false,
          "internalType": "uint256",
          "name": "contractTokenBalance",
          "type": "uint256"
        },
        {
          "indexed": false,
          "internalType": "uint256",
          "name": "amountToLiquify",
          "type": "uint256"
        },
        {
          "indexed": false,
          "internalType": "uint256",
          "name": "amountToSafetyFund",
          "type": "uint256"
        },
        {
          "indexed": false,
          "internalType": "uint256",
          "name": "amountToTreasury",
          "type": "uint256"
        },
        {
          "indexed": false,
          "internalType": "uint256",
          "name": "amountToBurn",
          "type": "uint256"
        },
        {
          "indexed": false,
          "internalType": "uint256",
          "name": "amountToCharity",
          "type": "uint256"
        }
      ],
      "name": "SwapBack",
      "type": "event"
    },
    {
      "anonymous": false,
      "inputs": [
        {
          "indexed": true,
          "internalType": "address",
          "name": "from",
          "type": "address"
        },
        {
          "indexed": true,
          "internalType": "address",
          "name": "to",
          "type": "address"
        },
        {
          "indexed": false,
          "internalType": "uint256",
          "name": "value",
          "type": "uint256"
        }
      ],
      "name": "Transfer",
      "type": "event"
    },
    {
      "anonymous": false,
      "inputs": [
        {
          "indexed": true,
          "internalType": "address",
          "name": "implementation",
          "type": "address"
        }
      ],
      "name": "Upgraded",
      "type": "event"
    },
    {
      "inputs": [],
      "name": "MAX_FEE_BUY",
      "outputs": [
        {
          "internalType": "uint256",
          "name": "",
          "type": "uint256"
        }
      ],
      "stateMutability": "view",
      "type": "function"
    },
    {
      "inputs": [],
      "name": "MAX_FEE_RATE",
      "outputs": [
        {
          "internalType": "uint256",
          "name": "",
          "type": "uint256"
        }
      ],
      "stateMutability": "view",
      "type": "function"
    },
    {
      "inputs": [],
      "name": "MAX_FEE_SELL",
      "outputs": [
        {
          "internalType": "uint256",
          "name": "",
          "type": "uint256"
        }
      ],
      "stateMutability": "view",
      "type": "function"
    },
    {
      "inputs": [
        {
          "internalType": "uint256",
          "name": "",
          "type": "uint256"
        }
      ],
      "name": "_markerPairs",
      "outputs": [
        {
          "internalType": "address",
          "name": "",
          "type": "address"
        }
      ],
      "stateMutability": "view",
      "type": "function"
    },
    {
      "inputs": [
        {
          "internalType": "address",
          "name": "owner_",
          "type": "address"
        },
        {
          "internalType": "address",
          "name": "spender",
          "type": "address"
        }
      ],
      "name": "allowance",
      "outputs": [
        {
          "internalType": "uint256",
          "name": "",
          "type": "uint256"
        }
      ],
      "stateMutability": "view",
      "type": "function"
    },
    {
      "inputs": [
        {
          "internalType": "address",
          "name": "spender",
          "type": "address"
        },
        {
          "internalType": "uint256",
          "name": "value",
          "type": "uint256"
        }
      ],
      "name": "approve",
      "outputs": [
        {
          "internalType": "bool",
          "name": "",
          "type": "bool"
        }
      ],
      "stateMutability": "nonpayable",
      "type": "function"
    },
    {
      "inputs": [],
      "name": "autoLPFrequency",
      "outputs": [
        {
          "internalType": "uint256",
          "name": "",
          "type": "uint256"
        }
      ],
      "stateMutability": "view",
      "type": "function"
    },
    {
      "inputs": [],
      "name": "autoRebase",
      "outputs": [
        {
          "internalType": "bool",
          "name": "",
          "type": "bool"
        }
      ],
      "stateMutability": "view",
      "type": "function"
    },
    {
      "inputs": [
        {
          "internalType": "address",
          "name": "",
          "type": "address"
        }
      ],
      "name": "automatedMarketMakerPairs",
      "outputs": [
        {
          "internalType": "bool",
          "name": "",
          "type": "bool"
        }
      ],
      "stateMutability": "view",
      "type": "function"
    },
    {
      "inputs": [
        {
          "internalType": "address",
          "name": "who",
          "type": "address"
        }
      ],
      "name": "balanceOf",
      "outputs": [
        {
          "internalType": "uint256",
          "name": "",
          "type": "uint256"
        }
      ],
      "stateMutability": "view",
      "type": "function"
    },
    {
      "inputs": [
        {
          "internalType": "uint256",
          "name": "",
          "type": "uint256"
        }
      ],
      "name": "bonfireBalanceThresholds",
      "outputs": [
        {
          "internalType": "uint256",
          "name": "",
          "type": "uint256"
        }
      ],
      "stateMutability": "view",
      "type": "function"
    },
    {
      "inputs": [],
      "name": "bonfireBurn",
      "outputs": [
        {
          "internalType": "uint256",
          "name": "",
          "type": "uint256"
        }
      ],
      "stateMutability": "view",
      "type": "function"
    },
    {
      "inputs": [],
      "name": "bonfireCharity",
      "outputs": [
        {
          "internalType": "uint256",
          "name": "",
          "type": "uint256"
        }
      ],
      "stateMutability": "view",
      "type": "function"
    },
    {
      "inputs": [],
      "name": "bonfireDenominator",
      "outputs": [
        {
          "internalType": "uint256",
          "name": "",
          "type": "uint256"
        }
      ],
      "stateMutability": "view",
      "type": "function"
    },
    {
      "inputs": [
        {
          "internalType": "uint256",
          "name": "",
          "type": "uint256"
        }
      ],
      "name": "bonfireFees",
      "outputs": [
        {
          "internalType": "uint256",
          "name": "",
          "type": "uint256"
        }
      ],
      "stateMutability": "view",
      "type": "function"
    },
    {
      "inputs": [],
      "name": "bonfireTreasury",
      "outputs": [
        {
          "internalType": "uint256",
          "name": "",
          "type": "uint256"
        }
      ],
      "stateMutability": "view",
      "type": "function"
    },
    {
      "inputs": [],
      "name": "busdToken",
      "outputs": [
        {
          "internalType": "address",
          "name": "",
          "type": "address"
        }
      ],
      "stateMutability": "view",
      "type": "function"
    },
    {
      "inputs": [],
      "name": "charityReceiver",
      "outputs": [
        {
          "internalType": "address",
          "name": "",
          "type": "address"
        }
      ],
      "stateMutability": "view",
      "type": "function"
    },
    {
      "inputs": [
        {
          "internalType": "address",
          "name": "_addr",
          "type": "address"
        }
      ],
      "name": "checkFeeExempt",
      "outputs": [
        {
          "internalType": "bool",
          "name": "",
          "type": "bool"
        }
      ],
      "stateMutability": "view",
      "type": "function"
    },
    {
      "inputs": [],
      "name": "checkSwapThreshold",
      "outputs": [
        {
          "internalType": "uint256",
          "name": "",
          "type": "uint256"
        }
      ],
      "stateMutability": "view",
      "type": "function"
    },
    {
      "inputs": [
        {
          "internalType": "address",
          "name": "_receiver",
          "type": "address"
        }
      ],
      "name": "clearStuckBalance",
      "outputs": [],
      "stateMutability": "nonpayable",
      "type": "function"
    },
    {
      "inputs": [],
      "name": "currentTimestamp",
      "outputs": [
        {
          "internalType": "uint256",
          "name": "",
          "type": "uint256"
        }
      ],
      "stateMutability": "view",
      "type": "function"
    },
    {
      "inputs": [],
      "name": "decimals",
      "outputs": [
        {
          "internalType": "uint8",
          "name": "",
          "type": "uint8"
        }
      ],
      "stateMutability": "view",
      "type": "function"
    },
    {
      "inputs": [
        {
          "internalType": "address",
          "name": "spender",
          "type": "address"
        },
        {
          "internalType": "uint256",
          "name": "subtractedValue",
          "type": "uint256"
        }
      ],
      "name": "decreaseAllowance",
      "outputs": [
        {
          "internalType": "bool",
          "name": "",
          "type": "bool"
        }
      ],
      "stateMutability": "nonpayable",
      "type": "function"
    },
    {
      "inputs": [],
      "name": "feeDenominator",
      "outputs": [
        {
          "internalType": "uint256",
          "name": "",
          "type": "uint256"
        }
      ],
      "stateMutability": "view",
      "type": "function"
    },
    {
      "inputs": [],
      "name": "getCirculatingSupply",
      "outputs": [
        {
          "internalType": "uint256",
          "name": "",
          "type": "uint256"
        }
      ],
      "stateMutability": "view",
      "type": "function"
    },
    {
      "inputs": [
        {
          "internalType": "uint256",
          "name": "accuracy",
          "type": "uint256"
        }
      ],
      "name": "getLiquidityBacking",
      "outputs": [
        {
          "internalType": "uint256",
          "name": "",
          "type": "uint256"
        }
      ],
      "stateMutability": "view",
      "type": "function"
    },
    {
      "inputs": [
        {
          "internalType": "address",
          "name": "spender",
          "type": "address"
        },
        {
          "internalType": "uint256",
          "name": "addedValue",
          "type": "uint256"
        }
      ],
      "name": "increaseAllowance",
      "outputs": [
        {
          "internalType": "bool",
          "name": "",
          "type": "bool"
        }
      ],
      "stateMutability": "nonpayable",
      "type": "function"
    },
    {
      "inputs": [],
      "name": "initialDistributionFinished",
      "outputs": [
        {
          "internalType": "bool",
          "name": "",
          "type": "bool"
        }
      ],
      "stateMutability": "view",
      "type": "function"
    },
    {
      "inputs": [
        {
          "internalType": "address",
          "name": "_router",
          "type": "address"
        },
        {
          "internalType": "address",
          "name": "_busd",
          "type": "address"
        }
      ],
      "name": "initialize",
      "outputs": [],
      "stateMutability": "nonpayable",
      "type": "function"
    },
    {
      "inputs": [],
      "name": "isLiquidityInBnb",
      "outputs": [
        {
          "internalType": "bool",
          "name": "",
          "type": "bool"
        }
      ],
      "stateMutability": "view",
      "type": "function"
    },
    {
      "inputs": [
        {
          "internalType": "uint256",
          "name": "target",
          "type": "uint256"
        },
        {
          "internalType": "uint256",
          "name": "accuracy",
          "type": "uint256"
        }
      ],
      "name": "isOverLiquified",
      "outputs": [
        {
          "internalType": "bool",
          "name": "",
          "type": "bool"
        }
      ],
      "stateMutability": "view",
      "type": "function"
    },
    {
      "inputs": [],
      "name": "liquidityFee",
      "outputs": [
        {
          "internalType": "uint256",
          "name": "",
          "type": "uint256"
        }
      ],
      "stateMutability": "view",
      "type": "function"
    },
    {
      "inputs": [],
      "name": "liquidityReceiver",
      "outputs": [
        {
          "internalType": "address",
          "name": "",
          "type": "address"
        }
      ],
      "stateMutability": "view",
      "type": "function"
    },
    {
      "inputs": [],
      "name": "manualRebase",
      "outputs": [
        {
          "internalType": "bool",
          "name": "",
          "type": "bool"
        }
      ],
      "stateMutability": "nonpayable",
      "type": "function"
    },
    {
      "inputs": [],
      "name": "manualSync",
      "outputs": [],
      "stateMutability": "nonpayable",
      "type": "function"
    },
    {
      "inputs": [],
      "name": "name",
      "outputs": [
        {
          "internalType": "string",
          "name": "",
          "type": "string"
        }
      ],
      "stateMutability": "view",
      "type": "function"
    },
    {
      "inputs": [],
      "name": "nextAutoLP",
      "outputs": [
        {
          "internalType": "uint256",
          "name": "",
          "type": "uint256"
        }
      ],
      "stateMutability": "view",
      "type": "function"
    },
    {
      "inputs": [],
      "name": "nextRebase",
      "outputs": [
        {
          "internalType": "uint256",
          "name": "",
          "type": "uint256"
        }
      ],
      "stateMutability": "view",
      "type": "function"
    },
    {
      "inputs": [],
      "name": "owner",
      "outputs": [
        {
          "internalType": "address",
          "name": "",
          "type": "address"
        }
      ],
      "stateMutability": "view",
      "type": "function"
    },
    {
      "inputs": [],
      "name": "pair",
      "outputs": [
        {
          "internalType": "address",
          "name": "",
          "type": "address"
        }
      ],
      "stateMutability": "view",
      "type": "function"
    },
    {
      "inputs": [],
      "name": "pairBusd",
      "outputs": [
        {
          "internalType": "address",
          "name": "",
          "type": "address"
        }
      ],
      "stateMutability": "view",
      "type": "function"
    },
    {
      "inputs": [],
      "name": "proxiableUUID",
      "outputs": [
        {
          "internalType": "bytes32",
          "name": "",
          "type": "bytes32"
        }
      ],
      "stateMutability": "view",
      "type": "function"
    },
    {
      "inputs": [],
      "name": "rebaseFrequency",
      "outputs": [
        {
          "internalType": "uint256",
          "name": "",
          "type": "uint256"
        }
      ],
      "stateMutability": "view",
      "type": "function"
    },
    {
      "inputs": [],
      "name": "renounceOwnership",
      "outputs": [],
      "stateMutability": "nonpayable",
      "type": "function"
    },
    {
      "inputs": [],
      "name": "rewardYield",
      "outputs": [
        {
          "internalType": "uint256",
          "name": "",
          "type": "uint256"
        }
      ],
      "stateMutability": "view",
      "type": "function"
    },
    {
      "inputs": [],
      "name": "rewardYieldDenominator",
      "outputs": [
        {
          "internalType": "uint256",
          "name": "",
          "type": "uint256"
        }
      ],
      "stateMutability": "view",
      "type": "function"
    },
    {
      "inputs": [],
      "name": "router",
      "outputs": [
        {
          "internalType": "contract IDEXRouter",
          "name": "",
          "type": "address"
        }
      ],
      "stateMutability": "view",
      "type": "function"
    },
    {
      "inputs": [],
      "name": "safetyFundFee",
      "outputs": [
        {
          "internalType": "uint256",
          "name": "",
          "type": "uint256"
        }
      ],
      "stateMutability": "view",
      "type": "function"
    },
    {
      "inputs": [],
      "name": "safetyFundReceiver",
      "outputs": [
        {
          "internalType": "address",
          "name": "",
          "type": "address"
        }
      ],
      "stateMutability": "view",
      "type": "function"
    },
    {
      "inputs": [],
      "name": "sellFeeliquidityAdded",
      "outputs": [
        {
          "internalType": "uint256",
          "name": "",
          "type": "uint256"
        }
      ],
      "stateMutability": "view",
      "type": "function"
    },
    {
      "inputs": [
        {
          "internalType": "uint256",
          "name": "_autoLPFrequency",
          "type": "uint256"
        }
      ],
      "name": "setAutoLPFrequency",
      "outputs": [],
      "stateMutability": "nonpayable",
      "type": "function"
    },
    {
      "inputs": [
        {
          "internalType": "bool",
          "name": "_autoRebase",
          "type": "bool"
        }
      ],
      "name": "setAutoRebase",
      "outputs": [],
      "stateMutability": "nonpayable",
      "type": "function"
    },
    {
      "inputs": [
        {
          "internalType": "address",
          "name": "_pair",
          "type": "address"
        },
        {
          "internalType": "bool",
          "name": "_value",
          "type": "bool"
        }
      ],
      "name": "setAutomatedMarketMakerPair",
      "outputs": [],
      "stateMutability": "nonpayable",
      "type": "function"
    },
    {
      "inputs": [
        {
          "internalType": "uint256[]",
          "name": "_bonfireBalanceThresholds",
          "type": "uint256[]"
        },
        {
          "internalType": "uint256[]",
          "name": "_bonfireFees",
          "type": "uint256[]"
        }
      ],
      "name": "setBonfireFees",
      "outputs": [],
      "stateMutability": "nonpayable",
      "type": "function"
    },
    {
      "inputs": [
        {
          "internalType": "address",
          "name": "_addr",
          "type": "address"
        },
        {
          "internalType": "bool",
          "name": "_value",
          "type": "bool"
        }
      ],
      "name": "setFeeExempt",
      "outputs": [],
      "stateMutability": "nonpayable",
      "type": "function"
    },
    {
      "inputs": [
        {
          "internalType": "address",
          "name": "_liquidityReceiver",
          "type": "address"
        },
        {
          "internalType": "address",
          "name": "_treasuryReceiver",
          "type": "address"
        },
        {
          "internalType": "address",
          "name": "_safetyFundReceiver",
          "type": "address"
        },
        {
          "internalType": "address",
          "name": "_charityReceiver",
          "type": "address"
        }
      ],
      "name": "setFeeReceivers",
      "outputs": [],
      "stateMutability": "nonpayable",
      "type": "function"
    },
    {
      "inputs": [
        {
          "internalType": "uint256",
          "name": "_liquidityFee",
          "type": "uint256"
        },
        {
          "internalType": "uint256",
          "name": "_safetyFundFee",
          "type": "uint256"
        },
        {
          "internalType": "uint256",
          "name": "_treasuryFee",
          "type": "uint256"
        },
        {
          "internalType": "uint256",
          "name": "_sellFeeliquidityAdded",
          "type": "uint256"
        },
        {
          "internalType": "uint256",
          "name": "_feeDenominator",
          "type": "uint256"
        }
      ],
      "name": "setFees",
      "outputs": [],
      "stateMutability": "nonpayable",
      "type": "function"
    },
    {
      "inputs": [
        {
          "internalType": "bool",
          "name": "_value",
          "type": "bool"
        }
      ],
      "name": "setInitialDistributionFinished",
      "outputs": [],
      "stateMutability": "nonpayable",
      "type": "function"
    },
    {
      "inputs": [
        {
          "internalType": "bool",
          "name": "_value",
          "type": "bool"
        }
      ],
      "name": "setIsLiquidityInBnb",
      "outputs": [],
      "stateMutability": "nonpayable",
      "type": "function"
    },
    {
      "inputs": [
        {
          "internalType": "uint256",
          "name": "_nextAutoLP",
          "type": "uint256"
        }
      ],
      "name": "setNextAutoLP",
      "outputs": [],
      "stateMutability": "nonpayable",
      "type": "function"
    },
    {
      "inputs": [
        {
          "internalType": "uint256",
          "name": "_nextRebase",
          "type": "uint256"
        }
      ],
      "name": "setNextRebase",
      "outputs": [],
      "stateMutability": "nonpayable",
      "type": "function"
    },
    {
      "inputs": [
        {
          "internalType": "uint256",
          "name": "_rebaseFrequency",
          "type": "uint256"
        }
      ],
      "name": "setRebaseFrequency",
      "outputs": [],
      "stateMutability": "nonpayable",
      "type": "function"
    },
    {
      "inputs": [
        {
          "internalType": "uint256",
          "name": "_rewardYield",
          "type": "uint256"
        },
        {
          "internalType": "uint256",
          "name": "_rewardYieldDenominator",
          "type": "uint256"
        }
      ],
      "name": "setRewardYield",
      "outputs": [],
      "stateMutability": "nonpayable",
      "type": "function"
    },
    {
      "inputs": [
        {
          "internalType": "bool",
          "name": "_enabled",
          "type": "bool"
        },
        {
          "internalType": "uint256",
          "name": "_num",
          "type": "uint256"
        },
        {
          "internalType": "uint256",
          "name": "_denom",
          "type": "uint256"
        }
      ],
      "name": "setSwapBackSettings",
      "outputs": [],
      "stateMutability": "nonpayable",
      "type": "function"
    },
    {
      "inputs": [
        {
          "internalType": "uint256",
          "name": "target",
          "type": "uint256"
        },
        {
          "internalType": "uint256",
          "name": "accuracy",
          "type": "uint256"
        }
      ],
      "name": "setTargetLiquidity",
      "outputs": [],
      "stateMutability": "nonpayable",
      "type": "function"
    },
    {
      "inputs": [],
      "name": "swapEnabled",
      "outputs": [
        {
          "internalType": "bool",
          "name": "",
          "type": "bool"
        }
      ],
      "stateMutability": "view",
      "type": "function"
    },
    {
      "inputs": [],
      "name": "symbol",
      "outputs": [
        {
          "internalType": "string",
          "name": "",
          "type": "string"
        }
      ],
      "stateMutability": "view",
      "type": "function"
    },
    {
      "inputs": [],
      "name": "totalBurnFee",
      "outputs": [
        {
          "internalType": "uint256",
          "name": "",
          "type": "uint256"
        }
      ],
      "stateMutability": "view",
      "type": "function"
    },
    {
      "inputs": [],
      "name": "totalBuyFee",
      "outputs": [
        {
          "internalType": "uint256",
          "name": "",
          "type": "uint256"
        }
      ],
      "stateMutability": "view",
      "type": "function"
    },
    {
      "inputs": [],
      "name": "totalCharityFee",
      "outputs": [
        {
          "internalType": "uint256",
          "name": "",
          "type": "uint256"
        }
      ],
      "stateMutability": "view",
      "type": "function"
    },
    {
      "inputs": [],
      "name": "totalLiquidityFee",
      "outputs": [
        {
          "internalType": "uint256",
          "name": "",
          "type": "uint256"
        }
      ],
      "stateMutability": "view",
      "type": "function"
    },
    {
      "inputs": [],
      "name": "totalSafetyFundFee",
      "outputs": [
        {
          "internalType": "uint256",
          "name": "",
          "type": "uint256"
        }
      ],
      "stateMutability": "view",
      "type": "function"
    },
    {
      "inputs": [],
      "name": "totalSellFee",
      "outputs": [
        {
          "internalType": "uint256",
          "name": "",
          "type": "uint256"
        }
      ],
      "stateMutability": "view",
      "type": "function"
    },
    {
      "inputs": [],
      "name": "totalSupply",
      "outputs": [
        {
          "internalType": "uint256",
          "name": "",
          "type": "uint256"
        }
      ],
      "stateMutability": "view",
      "type": "function"
    },
    {
      "inputs": [],
      "name": "totalTreasuryFee",
      "outputs": [
        {
          "internalType": "uint256",
          "name": "",
          "type": "uint256"
        }
      ],
      "stateMutability": "view",
      "type": "function"
    },
    {
      "inputs": [
        {
          "internalType": "address",
          "name": "to",
          "type": "address"
        },
        {
          "internalType": "uint256",
          "name": "value",
          "type": "uint256"
        }
      ],
      "name": "transfer",
      "outputs": [
        {
          "internalType": "bool",
          "name": "",
          "type": "bool"
        }
      ],
      "stateMutability": "nonpayable",
      "type": "function"
    },
    {
      "inputs": [
        {
          "internalType": "address",
          "name": "from",
          "type": "address"
        },
        {
          "internalType": "address",
          "name": "to",
          "type": "address"
        },
        {
          "internalType": "uint256",
          "name": "value",
          "type": "uint256"
        }
      ],
      "name": "transferFrom",
      "outputs": [
        {
          "internalType": "bool",
          "name": "",
          "type": "bool"
        }
      ],
      "stateMutability": "nonpayable",
      "type": "function"
    },
    {
      "inputs": [
        {
          "internalType": "address",
          "name": "newOwner",
          "type": "address"
        }
      ],
      "name": "transferOwnership",
      "outputs": [],
      "stateMutability": "nonpayable",
      "type": "function"
    },
    {
      "inputs": [],
      "name": "treasuryFee",
      "outputs": [
        {
          "internalType": "uint256",
          "name": "",
          "type": "uint256"
        }
      ],
      "stateMutability": "view",
      "type": "function"
    },
    {
      "inputs": [],
      "name": "treasuryReceiver",
      "outputs": [
        {
          "internalType": "address",
          "name": "",
          "type": "address"
        }
      ],
      "stateMutability": "view",
      "type": "function"
    },
    {
      "inputs": [
        {
          "internalType": "address",
          "name": "newImplementation",
          "type": "address"
        }
      ],
      "name": "upgradeTo",
      "outputs": [],
      "stateMutability": "nonpayable",
      "type": "function"
    },
    {
      "inputs": [
        {
          "internalType": "address",
          "name": "newImplementation",
          "type": "address"
        },
        {
          "internalType": "bytes",
          "name": "data",
          "type": "bytes"
        }
      ],
      "name": "upgradeToAndCall",
      "outputs": [],
      "stateMutability": "payable",
      "type": "function"
    },
    {
      "stateMutability": "payable",
      "type": "receive"
    }
  ],
  "bytecode": "0x60a06040523060601b60805234801561001757600080fd5b5060805160601c615210610052600039600081816115eb0152818161162b01528181611990015281816119d00152611a4c01526152106000f3fe6080604052600436106103a85760003560e01c806301b16827146103b457806304a66b48146103d657806306fdde03146103f657806308b1fd8f14610421578063095ea7b31461044e5780630af083141461047e5780630e30b850146104a25780631082bbe4146104b75780631161ae39146104d7578063123bc105146104f75780631276089b1461050d578063180b0d7e1461052d57806318160ddd146105435780631e2ff94f14610558578063201e79911461056b5780632062e1871461058b57806323b872dd146105a1578063264d26dd146105c15780632b112e49146105e15780632c39ce4e146105f6578063313ce56714610616578063324db30f146106385780633659cfe61461064e578063395093511461066e5780633c8e556d1461068e5780633d61b42c146106ae5780633f0e4705146106ce57806341fbffc0146106ee578063485cc9551461070457806348aa24b414610724578063499045431461073a5780634cd9ddf2146107505780634f1ef2861461077057806350603b2d146107835780635266c32f1461079957806352d1902d146107b9578063544727bc146107ce578063567df3a8146107ee57806358a8af291461080457806359b107b91461081a578063611436d11461083057806361a9d1b1146108505780636d351d1a146108655780636ddd17131461087a5780636def69e11461089a57806370a08231146108af578063715018a6146108cf57806374318224146108e4578063753d02a1146108fa578063764d72bf1461090f5780637f2b9f901461092f578063835439c71461094557806389375abf146109665780638da5cb5b1461097c5780638ebfc796146109915780638fe07970146109b15780639079f932146109c757806392f6576e1461089a57806395d89b41146109e857806398118cb4146109fd5780639a7a23d614610a135780639ae7372d14610a335780639d9241ec14610a53578063a457c2d714610a69578063a8aa1b3114610a89578063a9059cbb14610aa9578063b62496f514610ac9578063bc7e68a314610af9578063c994c7d814610b0f578063cc32d17614610b25578063d088935814610b3b578063d1fce26414610b5b578063d439979014610b7a578063d51ed1c814610bb3578063d7832b1114610bd3578063dd62ed3e14610be9578063de0e701414610c2f578063e15beb8014610c4f578063e1d5584c14610c6f578063ea6930af14610c8f578063f1efdfd514610caf578063f2fde38b14610ccf578063f887ea4014610cef57600080fd5b366103af57005b600080fd5b3480156103c057600080fd5b506103d46103cf366004614ac7565b610d0f565b005b3480156103e257600080fd5b506103d46103f1366004614b15565b610d8f565b34801561040257600080fd5b5061040b610f9f565b6040516104189190614c11565b60405180910390f35b34801561042d57600080fd5b5060d654610441906001600160a01b031681565b6040516104189190614ba5565b34801561045a57600080fd5b5061046e6104693660046149a0565b611031565b6040519015158152602001610418565b34801561048a57600080fd5b5061049460cc5481565b604051908152602001610418565b3480156104ae57600080fd5b50610494600d81565b3480156104c357600080fd5b506103d46104d23660046149cb565b61108c565b3480156104e357600080fd5b5061046e6104f2366004614ac7565b6112d3565b34801561050357600080fd5b5061049460d05481565b34801561051957600080fd5b506103d4610528366004614a2b565b6112e7565b34801561053957600080fd5b5061049460e55481565b34801561054f57600080fd5b5060f254610494565b34801561056457600080fd5b5042610494565b34801561057757600080fd5b506103d4610586366004614ac7565b611397565b34801561059757600080fd5b5061049460ed5481565b3480156105ad57600080fd5b5061046e6105bc366004614892565b611406565b3480156105cd57600080fd5b5060d554610441906001600160a01b031681565b3480156105ed57600080fd5b50610494611529565b34801561060257600080fd5b50610494610611366004614aaf565b6115bf565b34801561062257600080fd5b5060cb5460405160ff9091168152602001610418565b34801561064457600080fd5b5061049460f05481565b34801561065a57600080fd5b506103d46106693660046147c7565b6115e0565b34801561067a57600080fd5b5061046e6106893660046149a0565b6116a9565b34801561069a57600080fd5b506103d46106a9366004614837565b61171c565b3480156106ba57600080fd5b506104946106c9366004614aaf565b6117e6565b3480156106da57600080fd5b506103d46106e9366004614aaf565b6117f6565b3480156106fa57600080fd5b5061049460df5481565b34801561071057600080fd5b506103d461071f3660046147ff565b61185a565b34801561073057600080fd5b5061049460ee5481565b34801561074657600080fd5b5061049460e05481565b34801561075c57600080fd5b506103d461076b366004614aaf565b6118e4565b6103d461077e3660046148ff565b611985565b34801561078f57600080fd5b5061049460ec5481565b3480156107a557600080fd5b5060dc54610441906001600160a01b031681565b3480156107c557600080fd5b50610494611a3f565b3480156107da57600080fd5b506103d46107e9366004614a2b565b611aed565b3480156107fa57600080fd5b5061049460d15481565b34801561081057600080fd5b5061049460e85481565b34801561082657600080fd5b5061049460e15481565b34801561083c57600080fd5b5060d854610441906001600160a01b031681565b34801561085c57600080fd5b5061046e611b98565b34801561087157600080fd5b50610494611c88565b34801561088657600080fd5b5060cb5461046e9062010000900460ff1681565b3480156108a657600080fd5b50610494601281565b3480156108bb57600080fd5b506104946108ca3660046147c7565b611ca1565b3480156108db57600080fd5b506103d4611cc9565b3480156108f057600080fd5b5061049460e75481565b34801561090657600080fd5b506103d4611d04565b34801561091b57600080fd5b506103d461092a3660046147c7565b611da8565b34801561093b57600080fd5b5061049460ef5481565b34801561095157600080fd5b5060cb5461046e90600160201b900460ff1681565b34801561097257600080fd5b5061049460ce5481565b34801561098857600080fd5b50610441611e3f565b34801561099d57600080fd5b506103d46109ac3660046148d2565b611e4e565b3480156109bd57600080fd5b5061049460e65481565b3480156109d357600080fd5b5060cb5461046e906301000000900460ff1681565b3480156109f457600080fd5b5061040b611f18565b348015610a0957600080fd5b5061049460dd5481565b348015610a1f57600080fd5b506103d4610a2e3660046148d2565b611f27565b348015610a3f57600080fd5b506103d4610a4e366004614aaf565b6121f9565b348015610a5f57600080fd5b5061049460e25481565b348015610a7557600080fd5b5061046e610a843660046149a0565b61225d565b348015610a9557600080fd5b5060db54610441906001600160a01b031681565b348015610ab557600080fd5b5061046e610ac43660046149a0565b612332565b348015610ad557600080fd5b5061046e610ae43660046147c7565b60d46020526000908152604090205460ff1681565b348015610b0557600080fd5b5061049460cf5481565b348015610b1b57600080fd5b5061049460e95481565b348015610b3157600080fd5b5061049460de5481565b348015610b4757600080fd5b506103d4610b56366004614a63565b612371565b348015610b6757600080fd5b5060cb5461046e90610100900460ff1681565b348015610b8657600080fd5b5061046e610b953660046147c7565b6001600160a01b0316600090815260d2602052604090205460ff1690565b348015610bbf57600080fd5b50610494610bce366004614aaf565b612438565b348015610bdf57600080fd5b5061049460cd5481565b348015610bf557600080fd5b50610494610c043660046147ff565b6001600160a01b03918216600090815260f66020908152604080832093909416825291909152205490565b348015610c3b57600080fd5b5060d954610441906001600160a01b031681565b348015610c5b57600080fd5b506103d4610c6a366004614a2b565b6124da565b348015610c7b57600080fd5b50610441610c8a366004614aaf565b612585565b348015610c9b57600080fd5b506103d4610caa366004614aaf565b6125af565b348015610cbb57600080fd5b5060d754610441906001600160a01b031681565b348015610cdb57600080fd5b506103d4610cea3660046147c7565b612613565b348015610cfb57600080fd5b5060da54610441906001600160a01b031681565b33610d18611e3f565b6001600160a01b031614610d475760405162461bcd60e51b8152600401610d3e90614d2b565b60405180910390fd5b60cc82905560cd81905560408051838152602081018390527f3f34134cbdd92374af629b5ba82900de3e5301e7206333e1463e306916507d5691015b60405180910390a15050565b33610d98611e3f565b6001600160a01b031614610dbe5760405162461bcd60e51b8152600401610d3e90614d2b565b60128511158015610dd0575060128411155b8015610ddd575060128311155b8015610dea575060128211155b610e1e5760405162461bcd60e51b815260206004820152600560248201526477726f6e6760d81b6044820152606401610d3e565b60dd85905560df84905560de83905560e0829055610e4684610e4087866126b0565b906126b0565b60e181905560e054610e5891906126b0565b60e25560e154600d1015610eaa5760405162461bcd60e51b81526020600482015260196024820152780a8dee8c2d84084aab240cccaca40d2e640e8dede40d0d2ced603b1b6044820152606401610d3e565b601260e2541115610efa5760405162461bcd60e51b815260206004820152601a6024820152790a8dee8c2d840a68a989840cccaca40d2e640e8dede40d0d2ced60331b6044820152606401610d3e565b60e5819055610f0a600482614ea9565b60e15410610f485760405162461bcd60e51b815260206004820152600b60248201526a746f74616c42757946656560a81b6044820152606401610d3e565b604080518681526020810186905290810184905260608101839052608081018290527f881c278b86ef48391462a184ea0f2a579fec4c752524d2982eb0e2c9a956b7a39060a0015b60405180910390a15050505050565b606060c98054610fae9061500a565b80601f0160208091040260200160405190810160405280929190818152602001828054610fda9061500a565b80156110275780601f10610ffc57610100808354040283529160200191611027565b820191906000526020600020905b81548152906001019060200180831161100a57829003601f168201915b5050505050905090565b33600081815260f6602090815260408083206001600160a01b0387168085529252808320859055519192909160008051602061519b8339815191529061107a9086815260200190565b60405180910390a35060015b92915050565b33611095611e3f565b6001600160a01b0316146110bb5760405162461bcd60e51b8152600401610d3e90614d2b565b80518251146110ff5760405162461bcd60e51b815260206004820152601060248201526f0dcdee840cae2eac2d840d8cadccee8d60831b6044820152606401610d3e565b8151806001600160401b0381111561112757634e487b7160e01b600052604160045260246000fd5b604051908082528060200260200182016040528015611150578160200160208202803683370190505b5080516111659160e3916020909101906145f0565b50806001600160401b0381111561118c57634e487b7160e01b600052604160045260246000fd5b6040519080825280602002602001820160405280156111b5578160200160208202803683370190505b5080516111ca9160e4916020909101906145f0565b5060005b81811015611294578381815181106111f657634e487b7160e01b600052603260045260246000fd5b602002602001015160e3828154811061121f57634e487b7160e01b600052603260045260246000fd5b906000526020600020018190555082818151811061124d57634e487b7160e01b600052603260045260246000fd5b602002602001015160e4828154811061127657634e487b7160e01b600052603260045260246000fd5b6000918252602090912001558061128c81615045565b9150506111ce565b507f99224d84de960b2f94de268d3612c0e057da1398e4b506cdfdef20ca8f2163cc83836040516112c6929190614bec565b60405180910390a1505050565b6000826112df83612438565b119392505050565b336112f0611e3f565b6001600160a01b0316146113165760405162461bcd60e51b8152600401610d3e90614d2b565b60cb5460ff61010090910416151581151514156113455760405162461bcd60e51b8152600401610d3e90614c44565b60cb805461ff001916610100831515021790556040517f7ff743f3545e37dc045546239e43c5339aa2a94f682e0350554fb0fb044ed3769061138c90831515815260200190565b60405180910390a150565b336113a0611e3f565b6001600160a01b0316146113c65760405162461bcd60e51b8152600401610d3e90614d2b565b60ea82905560eb81905560408051838152602081018390527f61b037fbf40888c3d344a3dfa6986a7d511feda40cac15b93162e3e21713aed69101610d83565b6000826001600160a01b03811661142f5760405162461bcd60e51b8152600401610d3e90614dab565b6001600160a01b038516600090815260f6602090815260408083203384529091529020546000191461151257336001600160a01b03851614158061148c57506001600160a01b038416600090815260d2602052604090205460ff16155b15611512576040805180820182526016815275496e73756666696369656e7420416c6c6f77616e636560501b6020808301919091526001600160a01b038816600090815260f6825283812033825290915291909120546114ed9185906126bc565b6001600160a01b038616600090815260f6602090815260408083203384529091529020555b61151d8585856126e8565b50600195945050505050565b60f35460f56020527f84b4d0501e1ebb84b790e8bf784bd8e281da1f0706e679555c81e94160fff2a45461dead60009081526000805160206150f48339815191525490926115ba9290916115b491906115ae906115886012600a614f00565b6115969063ee6b2800614fa8565b6115a290600019615060565b6115ae90600019614fc7565b90612925565b90612931565b905090565b60e381815481106115cf57600080fd5b600091825260209091200154905081565b306001600160a01b037f00000000000000000000000000000000000000000000000000000000000000001614156116295760405162461bcd60e51b8152600401610d3e90614c69565b7f00000000000000000000000000000000000000000000000000000000000000006001600160a01b031661165b61293d565b6001600160a01b0316146116815760405162461bcd60e51b8152600401610d3e90614ca3565b61168a81612959565b604080516000808252602082019092526116a691839190612988565b50565b33600090815260f6602090815260408083206001600160a01b03861684529091528120546116d790836126b0565b33600081815260f6602090815260408083206001600160a01b0389168085529083529281902085905551938452909260008051602061519b833981519152910161107a565b33611725611e3f565b6001600160a01b03161461174b5760405162461bcd60e51b8152600401610d3e90614d2b565b60d580546001600160a01b038681166001600160a01b0319928316811790935560d68054878316908416811790915560d78054878416908516811790915560d8805493871693909416831790935560408051948552602085019190915283019190915260608201527f0824f26a5a1c7f10b10915a7b3391149cf6bd9af4fc0c2da7e492fdaadc2e0609060800160405180910390a150505050565b60e481815481106115cf57600080fd5b336117ff611e3f565b6001600160a01b0316146118255760405162461bcd60e51b8152600401610d3e90614d2b565b60d08190556040518181527f41d7fce710ca4ebbc34f7f67eae511827de435b1c9bd90cf8d38da8655514c289060200161138c565b600054610100900460ff166118755760005460ff161561187d565b61187d612b02565b6118995760405162461bcd60e51b8152600401610d3e90614cdd565b600054610100900460ff161580156118bb576000805461ffff19166101011790555b6118c3612b13565b6118cd8383612b42565b80156118df576000805461ff00191690555b505050565b336118ed611e3f565b6001600160a01b0316146119135760405162461bcd60e51b8152600401610d3e90614d2b565b6107088111156119505760405162461bcd60e51b81526020600482015260086024820152670a8dede40d0d2ced60c31b6044820152606401610d3e565b60ce8190556040518181527f2b437b36906bbacfbc05b761a7c548a2789a8f89f67286f88e93b04560822bc79060200161138c565b306001600160a01b037f00000000000000000000000000000000000000000000000000000000000000001614156119ce5760405162461bcd60e51b8152600401610d3e90614c69565b7f00000000000000000000000000000000000000000000000000000000000000006001600160a01b0316611a0061293d565b6001600160a01b031614611a265760405162461bcd60e51b8152600401610d3e90614ca3565b611a2f82612959565b611a3b82826001612988565b5050565b6000306001600160a01b037f00000000000000000000000000000000000000000000000000000000000000001614611ada5760405162461bcd60e51b815260206004820152603860248201527f555550535570677261646561626c653a206d757374206e6f742062652063616c6044820152771b1959081d1a1c9bdd59da0819195b1959d85d1958d85b1b60421b6064820152608401610d3e565b5060008051602061513483398151915290565b33611af6611e3f565b6001600160a01b031614611b1c5760405162461bcd60e51b8152600401610d3e90614d2b565b60cb5460ff600160201b9091041615158115151415611b4d5760405162461bcd60e51b8152600401610d3e90614c44565b60cb805460ff60201b1916600160201b831515021790556040517f83e471af05d20b81366748ebaab0192fabe382e712b4f6eb181d018c41a799a79061138c90831515815260200190565b60f15460009060ff1615611bda5760405162461bcd60e51b81526020600482015260096024820152682a393c9030b3b0b4b760b91b6044820152606401610d3e565b4260cf541115611c1a5760405162461bcd60e51b815260206004820152600b60248201526a4e6f7420696e2074696d6560a81b6044820152606401610d3e565b6000611c3960cd546115b460cc5460f2546134c490919063ffffffff16565b9050611c44816134d0565b50611c4d611d04565b6040518181527f612668bb4420df7d3f2fcc122dfd5fd434dc0cb2e1dce1b8180712f9200677119060200160405180910390a1600191505090565b60006115ba60f35460f45461293190919063ffffffff16565b60f3546001600160a01b038216600090815260f5602052604081205490916110869190612931565b33611cd2611e3f565b6001600160a01b031614611cf85760405162461bcd60e51b8152600401610d3e90614d2b565b611d0260006135a9565b565b60005b60d3548110156116a65760d38181548110611d3257634e487b7160e01b600052603260045260246000fd5b60009182526020822001546040805160016209351760e01b0319815290516001600160a01b039092169263fff6cae99260048084019382900301818387803b158015611d7d57600080fd5b505af1158015611d91573d6000803e3d6000fd5b505050508080611da090615045565b915050611d07565b33611db1611e3f565b6001600160a01b031614611dd75760405162461bcd60e51b8152600401610d3e90614d2b565b60405147906001600160a01b0383169082156108fc029083906000818181858888f19350505050158015611e0f573d6000803e3d6000fd5b507f2f0f983bc447da14da80ef6b41a88ab1ea636129df3a6af92b870934d6802a8582604051610d839190614ba5565b6097546001600160a01b031690565b33611e57611e3f565b6001600160a01b031614611e7d5760405162461bcd60e51b8152600401610d3e90614d2b565b6001600160a01b038216600090815260d2602052604090205460ff1615158115151415611ebc5760405162461bcd60e51b8152600401610d3e90614c44565b6001600160a01b038216600081815260d26020908152604091829020805460ff19168515159081179091558251938452908301527f6be51401060be42994125d8c96b787433e7a641a3555e3c3c4765e8a950fa37a9101610d83565b606060ca8054610fae9061500a565b33611f30611e3f565b6001600160a01b031614611f565760405162461bcd60e51b8152600401610d3e90614d2b565b6001600160a01b038216600090815260d4602052604090205460ff1615158115151415611fb95760405162461bcd60e51b815260206004820152601160248201527015985b1d5948185b1c9958591e481cd95d607a1b6044820152606401610d3e565b6001600160a01b038216600090815260d460205260409020805460ff191682158015919091179091556120365760d380546001810182556000919091527f915c3eb987b20e1af620c1403197bf687fb7f18513b3a73fde6e78c7072c41a60180546001600160a01b0319166001600160a01b0384161790556121bd565b60d35460011061207a5760405162461bcd60e51b815260206004820152600f60248201526e2932b8bab4b932b21018903830b4b960891b6044820152606401610d3e565b60005b60d3548110156121bb57826001600160a01b031660d382815481106120b257634e487b7160e01b600052603260045260246000fd5b6000918252602090912001546001600160a01b031614156121a95760d380546120dd90600190614fc7565b815481106120fb57634e487b7160e01b600052603260045260246000fd5b60009182526020909120015460d380546001600160a01b03909216918390811061213557634e487b7160e01b600052603260045260246000fd5b9060005260206000200160006101000a8154816001600160a01b0302191690836001600160a01b0316021790555060d380548061218257634e487b7160e01b600052603160045260246000fd5b600082815260209020810160001990810180546001600160a01b03191690550190556121bb565b806121b381615045565b91505061207d565b505b604051811515906001600160a01b038416907fffa9187bf1f18bf477bd0ea1bcbb64e93b6a98132473929edfce215cd9b16fab90600090a35050565b33612202611e3f565b6001600160a01b0316146122285760405162461bcd60e51b8152600401610d3e90614d2b565b60cf8190556040518181527fde97971104f1e2ea739b6fa6bd7a7eb834d3ed54ffa08425c5eb48ed9fbc27b69060200161138c565b33600090815260f6602090815260408083206001600160a01b03861684529091528120548083106122b15733600090815260f6602090815260408083206001600160a01b03881684529091528120556122e0565b6122bb8184612925565b33600090815260f6602090815260408083206001600160a01b03891684529091529020555b33600081815260f6602090815260408083206001600160a01b0389168085529083529281902054905190815291929160008051602061519b833981519152910160405180910390a35060019392505050565b6000826001600160a01b03811661235b5760405162461bcd60e51b8152600401610d3e90614dab565b6123663385856126e8565b506001949350505050565b3361237a611e3f565b6001600160a01b0316146123a05760405162461bcd60e51b8152600401610d3e90614d2b565b60cb805462ff0000191662010000851515021790556123f5826123ef836123c96012600a614f00565b6123d79063ee6b2800614fa8565b6123e390600019615060565b6115b490600019614fc7565b906134c4565b60f455604080518415158152602081018490529081018290527f512cfe1aedabdc06d12a680ace7434d88a9532c8853515536842f5ff52cbe55a906060016112c6565b600080805b60d3548110156124aa57612497612490633b9aca006115b460d3858154811061247657634e487b7160e01b600052603260045260246000fd5b6000918252602090912001546001600160a01b0316611ca1565b83906126b0565b50806124a281615045565b91505061243d565b506124d36124be633b9aca006115b4611529565b6115b46124cc8460026134c4565b86906134c4565b9392505050565b336124e3611e3f565b6001600160a01b0316146125095760405162461bcd60e51b8152600401610d3e90614d2b565b60cb5460ff6301000000909104161515811515141561253a5760405162461bcd60e51b8152600401610d3e90614c44565b60cb805463ff00000019166301000000831515021790556040517f76a3b4a2762dae8901450e92a099b166b4ec4b38d2509a67740a4d48fc6424609061138c90831515815260200190565b60d3818154811061259557600080fd5b6000918252602090912001546001600160a01b0316905081565b336125b8611e3f565b6001600160a01b0316146125de5760405162461bcd60e51b8152600401610d3e90614d2b565b60d18190556040518181527f3685ed04d3a6b8874d2101ccf5b38373f324143b556ab0e1341563a66a52dee09060200161138c565b3361261c611e3f565b6001600160a01b0316146126425760405162461bcd60e51b8152600401610d3e90614d2b565b6001600160a01b0381166126a75760405162461bcd60e51b815260206004820152602660248201527f4f776e61626c653a206e6577206f776e657220697320746865207a65726f206160448201526564647265737360d01b6064820152608401610d3e565b6116a6816135a9565b60006124d38284614e91565b600081848411156126e05760405162461bcd60e51b8152600401610d3e9190614c11565b505050900390565b6001600160a01b038316600090815260d26020526040812054819060ff168061272957506001600160a01b038416600090815260d2602052604090205460ff165b60cb54909150610100900460ff168061273f5750805b6127815760405162461bcd60e51b8152602060048201526013602482015272151c98591a5b99c81b9bdd081cdd185c9d1959606a1b6044820152606401610d3e565b60f15460ff161561279f576127978585856135fb565b9150506124d3565b60006127b660f354856134c490919063ffffffff16565b90506127c06136bd565b156127cd576127cd613719565b6001600160a01b038616600090815260f560205260409020546127f09082612925565b6001600160a01b038716600090815260f5602052604081209190915561281687876139d9565b612820578161282b565b61282b878784613a6b565b6001600160a01b038716600090815260f5602052604090205490915061285190826126b0565b6001600160a01b03808816600081815260f5602052604090209290925560f3549089169060008051602061517b83398151915290612890908590612931565b60405190815260200160405180910390a360cf5442101580156128bc575060cb546301000000900460ff165b15612918576128c9613c3a565b6001600160a01b038716600090815260d4602052604090205460ff1615801561290b57506001600160a01b038616600090815260d4602052604090205460ff16155b1561291857612918611d04565b5060019695505050505050565b60006124d38284614fc7565b60006124d38284614ea9565b600080516020615134833981519152546001600160a01b031690565b33612962611e3f565b6001600160a01b0316146116a65760405162461bcd60e51b8152600401610d3e90614d2b565b7f4910fdfa16fed3260ed0e7147f7cc6da11a60208b5b9406d12a635614ffd91435460ff16156129bb576118df83613c6e565b826001600160a01b03166352d1902d6040518163ffffffff1660e01b815260040160206040518083038186803b1580156129f457600080fd5b505afa925050508015612a24575060408051601f3d908101601f19168201909252612a2191810190614a97565b60015b612a875760405162461bcd60e51b815260206004820152602e60248201527f45524331393637557067726164653a206e657720696d706c656d656e7461746960448201526d6f6e206973206e6f74205555505360901b6064820152608401610d3e565b6000805160206151348339815191528114612af65760405162461bcd60e51b815260206004820152602960248201527f45524331393637557067726164653a20756e737570706f727465642070726f786044820152681a58589b195555525160ba1b6064820152608401610d3e565b506118df838383613d08565b6000612b0d30613d33565b15905090565b600054610100900460ff16612b3a5760405162461bcd60e51b8152600401610d3e90614d60565b611d02613d42565b600054610100900460ff16612b5d5760005460ff1615612b65565b612b65612b02565b612b815760405162461bcd60e51b8152600401610d3e90614cdd565b600054610100900460ff16158015612ba3576000805461ffff19166101011790555b60408051808201909152600c8082526b29bbb2b63637902a37b5b2b760a11b6020909201918252612bd69160c99161463b565b506040805180820190915260048082526353574c4f60e01b6020909201918252612c029160ca9161463b565b5060cb805460d580546001600160a01b0319908116738f00867f18db6851910b1ad1758a379166aa361a1790915560d680548216736985e759f4fc4c4ecbf96c232a25ab0b84094ca617905560d78054821673511396d971405bc99ea2031b1ca579c11a5dc22c17905560d880549091167342337ba4fef99d3ad6339cf84b8f2ce3e22fbfff17905564010001001264ffffffffff19909116179055621fc2b060cc5564174876e80060cd5561038460ce55612cc2426301e13380614e91565b60cf556202a30060d055612cda426301e13380614e91565b60d155600260dd819055600360de819055600560df81905560e0819055612d07929091610e4091906126b0565b60e181905560e054612d1991906126b0565b60e2556040805161010081018252620186a081526203d09060208201526207a12091810191909152620f42406060820152621e84806080820152622dc6c060a0820152623d090060c0820152624c4b4060e0820152612d7c9060e39060086146ae565b50604080516101008101825260018152600260208201526003918101919091526004606082015260056080820152600660a0820152600760c0820152600860e08201819052612dcd9160e4916146f0565b50606460e555603c60e6819055601e60e7819055600a60e8819055612df8929091610e4091906126b0565b60e955603260ea55606460eb556103e8612e146012600a614f00565b612e229063ee6b2800614fa8565b612e2e90600019615060565b612e3a90600019614fc7565b612e449190614ea9565b60f45560d980546001600160a01b038085166001600160a01b03199283161790925560da805492861692909116821790556040805163c45a015560e01b8152905163c45a015591600480820192602092909190829003018186803b158015612eab57600080fd5b505afa158015612ebf573d6000803e3d6000fd5b505050506040513d601f19601f82011682018060405250810190612ee391906147e3565b6001600160a01b031663c9c653963060da60009054906101000a90046001600160a01b03166001600160a01b031663ad5c46486040518163ffffffff1660e01b815260040160206040518083038186803b158015612f4057600080fd5b505afa158015612f54573d6000803e3d6000fd5b505050506040513d601f19601f82011682018060405250810190612f7891906147e3565b6040518363ffffffff1660e01b8152600401612f95929190614bb9565b602060405180830381600087803b158015612faf57600080fd5b505af1158015612fc3573d6000803e3d6000fd5b505050506040513d601f19601f82011682018060405250810190612fe791906147e3565b60db80546001600160a01b0319166001600160a01b0392831617905560da546040805163c45a015560e01b81529051919092169163c45a0155916004808301926020929190829003018186803b15801561304057600080fd5b505afa158015613054573d6000803e3d6000fd5b505050506040513d601f19601f8201168201806040525081019061307891906147e3565b60d9546040516364e329cb60e11b81526001600160a01b039283169263c9c65396926130ac92309290911690600401614bb9565b602060405180830381600087803b1580156130c657600080fd5b505af11580156130da573d6000803e3d6000fd5b505050506040513d601f19601f820116820180604052508101906130fe91906147e3565b60dc80546001600160a01b0319166001600160a01b0392831617815530600081815260f66020908152604080832060da54871684529091528082206000199081905560db5486168352818320819055928252808220839055925490931683529082205560ec81905560ed81905560ee81905560ef81905560f08190555b60e354811015613206576131916012600a614f00565b60e382815481106131b257634e487b7160e01b600052603260045260246000fd5b90600052602060002001546131c79190614fa8565b60e382815481106131e857634e487b7160e01b600052603260045260246000fd5b600091825260209091200155806131fe81615045565b91505061317b565b5060db5461321e906001600160a01b03166001611f27565b60dc54613235906001600160a01b03166001611f27565b6132416012600a614f00565b61324f9063ee6b2800614fa8565b60f2819055613264906123c96012600a614f00565b60f3556132736012600a614f00565b6132819063ee6b2800614fa8565b61328d90600019615060565b61329990600019614fc7565b33600081815260f5602090815260408083209490945560d6546001600160a01b03908116835260d29091528382208054600160ff19918216811790925560d75483168452858420805482168317905560d854831684528584208054821683179055308452858420805482168317905593835291849020805490931690911790915560d95460da54925163095ea7b360e01b81529082169263095ea7b3926133499291169060001990600401614bd3565b602060405180830381600087803b15801561336357600080fd5b505af1158015613377573d6000803e3d6000fd5b505050506040513d601f19601f8201168201806040525081019061339b9190614a47565b5060d95460dc5460405163095ea7b360e01b81526001600160a01b039283169263095ea7b3926133d49291169060001990600401614bd3565b602060405180830381600087803b1580156133ee57600080fd5b505af1158015613402573d6000803e3d6000fd5b505050506040513d601f19601f820116820180604052508101906134269190614a47565b5060d95460405163095ea7b360e01b81526001600160a01b039091169063095ea7b39061345b90309060001990600401614bd3565b602060405180830381600087803b15801561347557600080fd5b505af1158015613489573d6000803e3d6000fd5b505050506040513d601f19601f820116820180604052508101906134ad9190614a47565b5080156118df576000805461ff0019169055505050565b60006124d38284614fa8565b6000428261350c57806000805160206151bb83398151915260f2546040516134fa91815260200190565b60405180910390a2505060f254919050565b60008312156135325761352a61352184615074565b60f25490612925565b60f255613543565b60f25461353f90846126b0565b60f2555b60f2546001600160801b031015613560576001600160801b0360f2555b60f254613573906123c96012600a614f00565b60f35560ce546135839082614e91565b60cf5560f25460405190815281906000805160206151bb833981519152906020016134fa565b609780546001600160a01b038381166001600160a01b0319831681179093556040519116919082907f8be0079c531659141344cd1fd0a4f28419497f9722a3daafe3b4186f6b6457e090600090a35050565b60008061361360f354846134c490919063ffffffff16565b6001600160a01b038616600090815260f560205260409020549091506136399082612925565b6001600160a01b03808716600090815260f56020526040808220939093559086168152205461366890826126b0565b6001600160a01b03808616600081815260f56020526040908190209390935591519087169060008051602061517b833981519152906136aa9087815260200190565b60405180910390a3506001949350505050565b33600090815260d4602052604081205460ff161580156136e0575060f15460ff16155b80156136f4575060cb5462010000900460ff165b801561370757506000613705613d72565b115b80156115ba57504260d1541115905090565b60f15460ff161561376c5760405162461bcd60e51b815260206004820152601f60248201527f5265656e7472616e637947756172643a207265656e7472616e742063616c6c006044820152606401610d3e565b60f1805460ff19166001179055426000613784613d72565b60f35430600090815260f56020526040812054929350916137a491612931565b905060006137c160ec546123ef858561293190919063ffffffff16565b905060006137de60ee546123ef868661293190919063ffffffff16565b905060006137fb60ed546123ef878761293190919063ffffffff16565b9050600061381860ef546123ef888861293190919063ffffffff16565b9050600061383560f0546123ef898961293190919063ffffffff16565b905084156138465761384685613d9d565b83156138635760d7546138639085906001600160a01b0316613f76565b82156138805760d6546138809084906001600160a01b0316613f76565b811561389d5760d85461389d9083906001600160a01b0316613f76565b801561395f576138d16138bb60f354836134c490919063ffffffff16565b30600090815260f5602052604090205490612925565b30600090815260f5602052604090205560f354613914906138f39083906134c4565b61dead60005260f56020526000805160206150f483398151915254906126b0565b61dead600081905260f56020526000805160206150f483398151915291909155604051309060008051602061517b833981519152906139569085815260200190565b60405180910390a35b60d05461396c9089614e91565b60d1556040805187815260208101879052908101859052606081018490526080810182905260a081018390527ffc18969df35ccba802c14035d6d6273bf5bb4d8b9de8faa7aba1044c813b13009060c00160405180910390a1505060f1805460ff19169055505050505050565b6001600160a01b038216600090815260d2602052604081205460ff1680613a1857506001600160a01b038216600090815260d2602052604090205460ff165b15613a2557506000611086565b6001600160a01b038316600090815260d4602052604090205460ff1680613a6457506001600160a01b038216600090815260d4602052604090205460ff165b9050611086565b60e1546001600160a01b038416600090815260f560205260408120549091908290613a9f90613a9a90866126b0565b6140e3565b9050613ac4613abb60e95460dd546134c490919063ffffffff16565b60ec54906126b0565b60ec5560e95460de54613ae491613adb91906134c4565b60ed54906126b0565b60ed5560e95460df54613b0491613afb91906134c4565b60ee54906126b0565b60ee556001600160a01b038516600090815260d4602052604090205460ff1615613ba7578060e254613b369190614e91565b9150613b52613abb60e95460e0546134c490919063ffffffff16565b60ec5560e854613b7090613b679083906134c4565b60ef54906126b0565b60ef5560e754613b8590613adb9083906134c4565b60ed5560e654613ba390613b9a9083906134c4565b60f054906126b0565b60f0555b60e554600090613bbb906115b487866134c4565b30600090815260f56020526040902054909150613bd890826126b0565b30600081815260f5602052604090209190915560f3546001600160a01b0389169060008051602061517b83398151915290613c14908590612931565b60405190815260200160405180910390a3613c2f8582612925565b979650505050505050565b60f15460ff16611d02576000613c6360cd546115b460cc5460f2546134c490919063ffffffff16565b9050611a3b816134d0565b613c7781613d33565b613cd95760405162461bcd60e51b815260206004820152602d60248201527f455243313936373a206e657720696d706c656d656e746174696f6e206973206e60448201526c1bdd08184818dbdb9d1c9858dd609a1b6064820152608401610d3e565b60008051602061513483398151915280546001600160a01b0319166001600160a01b0392909216919091179055565b613d11836141af565b600082511180613d1e5750805b156118df57613d2d83836141ef565b50505050565b6001600160a01b03163b151590565b600054610100900460ff16613d695760405162461bcd60e51b8152600401610d3e90614d60565b611d02336135a9565b60006115ba60ee54610e4060ef54610e4060f054610e4060ed5460ec546126b090919063ffffffff16565b6000613daa826002612931565b90506000613db88383612925565b60cb54909150600160201b900460ff1615613e235747613dd88330613f76565b6000613de44783612925565b9050613df083826142e1565b7f17bbfb9a6069321b6ded73bd96327c9e6b7212a5cd51ff219cd61370acafb561848285604051610f9093929190614e4b565b60d9546040516370a0823160e01b81526000916001600160a01b0316906370a0823190613e54903090600401614ba5565b60206040518083038186803b158015613e6c57600080fd5b505afa158015613e80573d6000803e3d6000fd5b505050506040513d601f19601f82011682018060405250810190613ea49190614a97565b9050613eb0833061438c565b60d9546040516370a0823160e01b8152600091613f379184916001600160a01b0316906370a0823190613ee7903090600401614ba5565b60206040518083038186803b158015613eff57600080fd5b505afa158015613f13573d6000803e3d6000fd5b505050506040513d601f19601f820116820180604052508101906115ae9190614a97565b9050613f438382614503565b7f558e8efb161691189a8c7d8e35d5831fd8efc87c53c587fddcd4f574d7c8c8cf848285604051610f9093929190614e4b565b6040805160028082526060820183526000926020830190803683370190505090503081600081518110613fb957634e487b7160e01b600052603260045260246000fd5b6001600160a01b0392831660209182029290920181019190915260da54604080516315ab88c960e31b81529051919093169263ad5c4648926004808301939192829003018186803b15801561400d57600080fd5b505afa158015614021573d6000803e3d6000fd5b505050506040513d601f19601f8201168201806040525081019061404591906147e3565b8160018151811061406657634e487b7160e01b600052603260045260246000fd5b6001600160a01b03928316602091820292909201015260da5460405163791ac94760e01b815291169063791ac947906140ac908690600090869088904290600401614ddb565b600060405180830381600087803b1580156140c657600080fd5b505af11580156140da573d6000803e3d6000fd5b50505050505050565b6000806140fb60f3548461293190919063ffffffff16565b905060005b60e3548110156141a55760e35460009060019061411e908490614fc7565b6141289190614fc7565b905060e3818154811061414b57634e487b7160e01b600052603260045260246000fd5b906000526020600020015483106141925760e4818154811061417d57634e487b7160e01b600052603260045260246000fd5b90600052602060002001549350505050919050565b508061419d81615045565b915050614100565b5060009392505050565b6141b881613c6e565b6040516001600160a01b038216907fbc7cd75a20ee27fd9adebab32041f755214dbc6bffa90cc0225b39da2e5c2d3b90600090a250565b60606141fa83613d33565b6142555760405162461bcd60e51b815260206004820152602660248201527f416464726573733a2064656c65676174652063616c6c20746f206e6f6e2d636f6044820152651b9d1c9858dd60d21b6064820152608401610d3e565b600080846001600160a01b0316846040516142709190614b89565b600060405180830381855af49150503d80600081146142ab576040519150601f19603f3d011682016040523d82523d6000602084013e6142b0565b606091505b50915091506142d88282604051806060016040528060278152602001615154602791396145b7565b95945050505050565b60da5460d55460405163f305d71960e01b81523060048201526024810185905260006044820181905260648201526001600160a01b0391821660848201524260a482015291169063f305d71990839060c4016060604051808303818588803b15801561434c57600080fd5b505af1158015614360573d6000803e3d6000fd5b50505050506040513d601f19601f820116820180604052508101906143859190614ae8565b5050505050565b604080516003808252608082019092526000916020820160608036833701905050905030816000815181106143d157634e487b7160e01b600052603260045260246000fd5b6001600160a01b0392831660209182029290920181019190915260da54604080516315ab88c960e31b81529051919093169263ad5c4648926004808301939192829003018186803b15801561442557600080fd5b505afa158015614439573d6000803e3d6000fd5b505050506040513d601f19601f8201168201806040525081019061445d91906147e3565b8160018151811061447e57634e487b7160e01b600052603260045260246000fd5b6001600160a01b03928316602091820292909201015260d9548251911690829060029081106144bd57634e487b7160e01b600052603260045260246000fd5b6001600160a01b03928316602091820292909201015260da54604051635c11d79560e01b8152911690635c11d795906140ac908690600090869088904290600401614ddb565b60da5460d95460d55460405162e8e33760e81b81523060048201526001600160a01b039283166024820152604481018690526064810185905260006084820181905260a482015290821660c48201524260e482015291169063e8e337009061010401606060405180830381600087803b15801561457f57600080fd5b505af1158015614593573d6000803e3d6000fd5b505050506040513d601f19601f820116820180604052508101906143859190614ae8565b606083156145c65750816124d3565b8251156145d65782518084602001fd5b8160405162461bcd60e51b8152600401610d3e9190614c11565b82805482825590600052602060002090810192821561462b579160200282015b8281111561462b578251825591602001919060010190614610565b50614637929150614730565b5090565b8280546146479061500a565b90600052602060002090601f016020900481019282614669576000855561462b565b82601f1061468257805160ff191683800117855561462b565b8280016001018555821561462b579182018281111561462b578251825591602001919060010190614610565b82805482825590600052602060002090810192821561462b579160200282015b8281111561462b578251829062ffffff169055916020019190600101906146ce565b82805482825590600052602060002090810192821561462b579160200282015b8281111561462b578251829060ff16905591602001919060010190614710565b5b808211156146375760008155600101614731565b600082601f830112614755578081fd5b813560206001600160401b03821115614770576147706150ba565b8160051b61477f828201614e61565b838152828101908684018388018501891015614799578687fd5b8693505b858410156147bb57803583526001939093019291840191840161479d565b50979650505050505050565b6000602082840312156147d8578081fd5b81356124d3816150d0565b6000602082840312156147f4578081fd5b81516124d3816150d0565b60008060408385031215614811578081fd5b823561481c816150d0565b9150602083013561482c816150d0565b809150509250929050565b6000806000806080858703121561484c578182fd5b8435614857816150d0565b93506020850135614867816150d0565b92506040850135614877816150d0565b91506060850135614887816150d0565b939692955090935050565b6000806000606084860312156148a6578283fd5b83356148b1816150d0565b925060208401356148c1816150d0565b929592945050506040919091013590565b600080604083850312156148e4578182fd5b82356148ef816150d0565b9150602083013561482c816150e5565b60008060408385031215614911578182fd5b823561491c816150d0565b91506020838101356001600160401b0380821115614938578384fd5b818601915086601f83011261494b578384fd5b81358181111561495d5761495d6150ba565b61496f601f8201601f19168501614e61565b91508082528784828501011115614984578485fd5b8084840185840137810190920192909252919491935090915050565b600080604083850312156149b2578182fd5b82356149bd816150d0565b946020939093013593505050565b600080604083850312156149dd578182fd5b82356001600160401b03808211156149f3578384fd5b6149ff86838701614745565b93506020850135915080821115614a14578283fd5b50614a2185828601614745565b9150509250929050565b600060208284031215614a3c578081fd5b81356124d3816150e5565b600060208284031215614a58578081fd5b81516124d3816150e5565b600080600060608486031215614a77578283fd5b8335614a82816150e5565b95602085013595506040909401359392505050565b600060208284031215614aa8578081fd5b5051919050565b600060208284031215614ac0578081fd5b5035919050565b60008060408385031215614ad9578182fd5b50508035926020909101359150565b600080600060608486031215614afc578081fd5b8351925060208401519150604084015190509250925092565b600080600080600060a08688031215614b2c578283fd5b505083359560208501359550604085013594606081013594506080013592509050565b6000815180845260208085019450808401835b83811015614b7e57815187529582019590820190600101614b62565b509495945050505050565b60008251614b9b818460208701614fde565b9190910192915050565b6001600160a01b0391909116815260200190565b6001600160a01b0392831681529116602082015260400190565b6001600160a01b03929092168252602082015260400190565b604081526000614bff6040830185614b4f565b82810360208401526142d88185614b4f565b6020815260008251806020840152614c30816040850160208701614fde565b601f01601f19169190910160400192915050565b6020808252600b908201526a139bdd0818da185b99d95960aa1b604082015260600190565b6020808252602c9082015260008051602061511483398151915260408201526b19195b1959d85d1958d85b1b60a21b606082015260800190565b6020808252602c9082015260008051602061511483398151915260408201526b6163746976652070726f787960a01b606082015260800190565b6020808252602e908201527f496e697469616c697a61626c653a20636f6e747261637420697320616c72656160408201526d191e481a5b9a5d1a585b1a5e995960921b606082015260800190565b6020808252818101527f4f776e61626c653a2063616c6c6572206973206e6f7420746865206f776e6572604082015260600190565b6020808252602b908201527f496e697469616c697a61626c653a20636f6e7472616374206973206e6f74206960408201526a6e697469616c697a696e6760a81b606082015260800190565b602080825260169082015275526563697069656e74207a65726f206164647265737360501b604082015260600190565b600060a082018783526020878185015260a0604085015281875180845260c0860191508289019350845b81811015614e2a5784516001600160a01b031683529383019391830191600101614e05565b50506001600160a01b03969096166060850152505050608001529392505050565b9283526020830191909152604082015260600190565b604051601f8201601f191681016001600160401b0381118282101715614e8957614e896150ba565b604052919050565b60008219821115614ea457614ea461508e565b500190565b600082614eb857614eb86150a4565b500490565b600181815b80851115614ef8578160001904821115614ede57614ede61508e565b80851615614eeb57918102915b93841c9390800290614ec2565b509250929050565b60006124d38383600082614f1657506001611086565b81614f2357506000611086565b8160018114614f395760028114614f4357614f5f565b6001915050611086565b60ff841115614f5457614f5461508e565b50506001821b611086565b5060208310610133831016604e8410600b8410161715614f82575081810a611086565b614f8c8383614ebd565b8060001904821115614fa057614fa061508e565b029392505050565b6000816000190483118215151615614fc257614fc261508e565b500290565b600082821015614fd957614fd961508e565b500390565b60005b83811015614ff9578181015183820152602001614fe1565b83811115613d2d5750506000910152565b600181811c9082168061501e57607f821691505b6020821081141561503f57634e487b7160e01b600052602260045260246000fd5b50919050565b60006000198214156150595761505961508e565b5060010190565b60008261506f5761506f6150a4565b500690565b6000600160ff1b82141561508a5761508a61508e565b0390565b634e487b7160e01b600052601160045260246000fd5b634e487b7160e01b600052601260045260246000fd5b634e487b7160e01b600052604160045260246000fd5b6001600160a01b03811681146116a657600080fd5b80151581146116a657600080fdfe52fad9cb3e456a6719f4a710617c8d6d0a6ba4a2c57d5fd09b4c8b0e268a06fb46756e6374696f6e206d7573742062652063616c6c6564207468726f75676820360894a13ba1a3210667c828492db98dca3e2076cc3735a920a3ca505d382bbc416464726573733a206c6f772d6c6576656c2064656c65676174652063616c6c206661696c6564ddf252ad1be2c89b69c2b068fc378daa952ba7f163c4a11628f55a4df523b3ef8c5be1e5ebec7d5bd14f71427d1e84f3dd0314c0f7b2291e5b200ac8c7c3b92572725a3b1e5bd622d6bcd1339bb31279c351abe8f541ac7fd320f24e1b1641f2a2646970667358221220bcb4f1e78bdeba96a5a0f05198770887faf3a8e818dd24c3493839c7d71be40164736f6c63430008040033",
  "linkReferences": {},
  "deployedLinkReferences": {}
}